:100000000C9487000C94F8010C94A4000C94A400A8
:100010000C94A4000C94A4000C94A4000C94A400D0
:100020000C94A4000C94A4000C94A4000C94A400C0
:100030000C94A4000C94A4000C94A4000C94A400B0
:100040000C94A4000C94A4000C94A4000C94A400A0
:100050000C94A4000C94A4000C94A4000C94A40090
:100060000C94A4000C94A4000C94A4000C94A40080
:100070000C94A4000C94A4000C94A4000C94A40070
:100080000C94A4000C94A4000C94A4000C94A40060
:100090000C94A4000C94A4000C94A4000C94A40050
:1000A0000C94A4000C94A4000C94A4000C94A40040
:1000B0000C94A40009021200010100801909040037
:1000C00000000000000012011001FF000008C0162F
:1000D000DC050401010200010E035500530042003B
:1000E0006100730070001C037700770077002E001A
:1000F000660069007300630068006C002E006400F5
:10010000650004030904FF88D8CD45AB891211248A
:100110001FBECFEFD8E0DEBFCDBF11E0A0E0B1E061
:10012000E6E5FBE102C005900D92A230B107D9F7D8
:1001300021E0A2E0B1E001C01D92AC3CB207E1F7C2
:100140000E94730D0C94A90D0C940000CF93DF93C3
:100150006091AA01635067FD14C02091A7018CE053
:1001600090E0821B9109EC01C255DE4F8091A601FF
:100170008D3209F452C08091020187FD93C0109224
:10018000AA018091010184FF3BC0C0910001CF3FD3
:10019000B9F1C93008F469C088EF8C0F8093000171
:1001A00090919A0188E8892780939A01C8E080910C
:1001B000020187FDA1C02091A8013091A90186FF0D
:1001C00068C0ABE9B1E0F9018C2F94919D93319611
:1001D0008150D9F78FEF8C0F90E00196280F391FCF
:1001E0003093A9012093A8016C2F8BE991E00E9424
:1001F000F40184E08C0F8C3009F047C0809301013A
:1002000094E183B1837031F49150D9F71092AB012E
:100210001092A501DF91CF910895683009F0AFCF1A
:1002200083EC80939A018AE5809301011092020188
:100230008881807609F041C08A811092A30199815A
:10024000911147C01092A40123EA31E082E030937B
:10025000A9012093A8019F81911104C09E81981744
:1002600008F4892F809300018ACF109200019091A9
:100270009A0188E8892780939A01C11198CF60E09C
:100280008BE991E00E94F40184E09FEF90930001DC
:10029000B5CFD901EBE9F1E08C2F9D91919381507D
:1002A000E1F798CFCE010E9481088F3F09F18823A2
:1002B00009F465CF1092000162CFCE010E940006C2
:1002C0008F3F49F6988197FD2DC090E890930201E9
:1002D000C9CF953009F1963039F1983089F19930CC
:1002E00099F181E09A3009F080E023EA31E0AFCF64
:1002F0008EE18093010143CF6C2F8BE991E00E9446
:10030000C007C82F893008F46FCF8FEF80930001AA
:100310008EE18093010174CF8093AB0123EA31E039
:1003200080E095CF8E81D1CF9B819130D9F09230F2
:1003300089F09330F9F080E090E4909302018BCF44
:100340002DEA31E081E083CF8093AD0123EA31E0F3
:1003500080E07DCF84EB90E09093A9018093A80189
:1003600082E1EACF86EC90E09093A9018093A80106
:1003700082E1E2CF811108C082E091E09093A9016F
:100380008093A80184E0D8CF813051F0823099F673
:1003900088ED90E09093A9018093A8018EE0CCCFE6
:1003A00086EE90E09093A9018093A8018CE1C4CFE0
:1003B000E9E6F0E0808183608083E89A0895A82FC1
:1003C000B92F80E090E041E050EA609530E009C04C
:1003D0002D9182279795879510F084279527305E79
:1003E000C8F36F5FA8F30895EADF8D939D93089596
:1003F000CF93CFB7CF93C395189BE9F7189B09C04C
:10040000189B07C0189B05C0189B03C0189B01C010
:10041000A1C0DF93C091A701DD27C255DE4F189B15
:1004200002C0DF91EBCF2F930F931F9303B12FEFF8
:1004300000FB20F94F933F9313B14FEF012700FBCF
:1004400021F93BE031C04E7F012F13B1216028C05C
:10045000102F4D7F2260000003B129C04B7F246024
:10046000012F000013B12BC013B1477F28602AC0B1
:100470004F7E03B120612CC04F7D13B120622FC08D
:100480004F7B03B1206432C0422703B149934FEF41
:100490000000102710FB20F913B11370C9F1297F58
:1004A00091F2012700FB21F903B1237F89F231503A
:1004B00058F1102710FB22F913B1277E79F201279A
:1004C00000FB23F92F7C81F203B1102710FB24F9E4
:1004D0002F7971F200C013B1012700FB25F92F73AA
:1004E00059F200C003B1102710FB26F9223040F268
:1004F00000C013B1012700FB27F9243028F64F77FD
:10050000206813B10000F9CF11E01CBB002717C011
:100510003B503195C31BD04011E01CBB0881033C0C
:10052000E9F00B34D9F02091A5011981110F1213B4
:10053000EDCF093641F10D3211F0013E39F700934C
:10054000AC013F914F911F910F912F91DF91CCB34F
:10055000C0FD51CFCF91CFBFCF9118952091AC0165
:10056000222379F31091AA01112311F5343012F1ED
:100570003093AA012093A6011091A7013BE0311B03
:100580003093A70117C00091AA0101308CF40AE54D
:100590003091010134FD10C000930101CAE9D1E09E
:1005A0000FC02795A8F45150A9F4220F0000F9CFED
:1005B0004AE503C042ED01C0432FC4E1D0E032E080
:1005C00014B11360289A14B905B120E413E05F93C5
:1005D000012756E005B9279520F4515021F4220F48
:1005E000F9CF012756E000003B5A05B9D0F2279514
:1005F00028F4515029F4220F0000F9CF012756E0CA
:10060000279505B920F4515021F4220FF9CF012785
:1006100056E02991332305B921F60C7F1091AB01E7
:10062000110FC651D04005B911F01093A50111E08A
:100630001CBB016014B11C7F402F4C7F5F9100C038
:1006400000C005B914B945B97CCF582F48E080E007
:1006500057FD18C02B98550F880F1C998F5F2D9A46
:1006600036B52091C90196B5931B9217E0F32D98EA
:1006700036B52091C90196B5931B9217E0F341500E
:1006800039F708952B9AE7CF8EBD0DB407FEFDCF45
:100690008EB50895DC01CB0121E1B695A79597951C
:1006A00087952A95D1F72091C8012817D9F0809312
:1006B000C801E091C501F091C6018DE40995E09172
:1006C000C501F091C60180E00995E091C501F09166
:1006D000C6018091C8010995E091C501F091C6015C
:1006E00080E0099408958091C7018CBD8091C40178
:1006F0008DBD08958823A1F08830D0F525E233E040
:100700003093C6012093C5018430F1F008F18630A2
:10071000C1F030F18730A1F483E08093C9010895DE
:1007200084E493E09093C6018093C50181E08093B7
:10073000C90182E58093C70181E08093C4010895D7
:1007400080EC8093C901089588E18093C9010895E0
:10075000823051F08330A1F780E38093C90108957E
:100760008CE08093C901089580E68093C9010895C3
:1007700024E433E03093C6012093C5011092C401F4
:1007800091E09093C901893059F070F08B3021F0DD
:100790008C3079F69093C40181E58093C701089568
:1007A00082E58093C7010895883019F683E5809328
:1007B000C701089526B59091C90186B5821B891796
:1007C000E0F3089584B18C6284B92A982D9826B5F7
:1007D0009091C90186B5821B8917E0F32A9A26B544
:1007E0009091C90186B5821B8917E0F32A98809100
:1007F000C5019091C6018454934019F01092C8012C
:1008000008958091C7018CBD8091C4018DBD109267
:10081000C801089584B1837D84B985B1837D85B98C
:100820001CBC0895CF93DF93C0E2E091C501F09125
:10083000C6018CEA0995E091C501F091C60183E5F6
:100840000995E091C501F091C60180E00995D82F86
:10085000E091C501F091C60180E00995D33561F1C1
:100860001CBC26B59091C90186B5821B8917E0F39F
:100870002A9A26B59091C90186B5821B8917E0F3A3
:100880002A9826B59091C90186B5821B8917E0F395
:100890008091C5019091C6018454934031F0C150BC
:1008A00021F681E0DF91CF9108958091C7018CBD41
:1008B0008091C4018DBDF3CF80E0DF91CF91089589
:1008C000CF92DF92EF92FF926B017C010E944A036C
:1008D0008C2D8170880F880F880FE091C501F091F1
:1008E000C60180620995D701C60129E0B695A79592
:1008F000979587952A95D1F7E091C501F091C601AA
:100900000995D701C601B695A79597958795E0916A
:10091000C501F091C6010995E091C501F091C601AC
:1009200080E0FF90EF90DF90CF900994CF92DF921C
:10093000EF92FF92CF93DF936B017C01C42FD22FF4
:100940000E944A038C2D8170880F880F880FE091D8
:10095000C501F091C60180640995D701C60129E05F
:10096000B695A795979587952A95D1F7E091C501FA
:10097000F091C6010995D701C601B695A79597953F
:100980008795E091C501F091C6010995E091C501F7
:10099000F091C6018C2F0995DD23E1F0CF37B9F036
:1009A000D6B5CEE1C701B6010E9460048F3791F43D
:1009B00086B58D1B8D33B0F3D6B5C15099F781E064
:1009C000DF91CF91FF90EF90DF90CF9008958FE06F
:1009D0000E948B0580E0DF91CF91FF90EF90DF9038
:1009E000CF900895CF92DF92EF92FF92CF93DF9353
:1009F0006B017C01C42F0E944A03E091C501F09174
:100A0000C6018CE40995D701C60129E0B695A795E2
:100A1000979587952A95D1F7E091C501F091C60188
:100A20000995D701C601B695A79597958795E09149
:100A3000C501F091C6010995E091C501F091C6018B
:100A400080E00995CF3FF9F0D6B5CEE1C701B601F8
:100A50000E9460048F3F79F486B58D1B8D33B0F30F
:100A6000D6B5C15099F781E0DF91CF91FF90EF901B
:100A7000DF90CF90089580E0DF91CF91FF90EF90CD
:100A8000DF90CF9008958FE00E948B0580E0ECCF3F
:100A9000CF93DF93EC01E091C501F091C60180EAAC
:100AA0000995E091C501F091C6018D2F0995E0915E
:100AB000C501F091C6018C2F0995E091C501F09117
:100AC000C60180E0DF91CF9109941F93CF93DF930C
:100AD000D82F192FC62FE091C501F091C60180ECE7
:100AE0000995E091C501F091C601812F0995E0912A
:100AF000C501F091C6018D2F0995E091C501F091D6
:100B0000C6018C2F09958EE10E948B0580E0DF9154
:100B1000CF911F910895882349F030E026B596B50E
:100B2000921B9C33E0F33F5F8313F8CF0895259A1F
:100B300023982B9A50E217D05A95E9F70895AC0103
:100B400088E605D0842F03D089E601D0852F0FD009
:100B500028E030E0382780FB869506D02A95D1F72B
:100B600030FB02D000D0689423982B9A16F02B9873
:100B7000239AE091CA01F091CB013197F0F72D9AB9
:100B8000E3B1E3FBE091CA01F091CB013197F0F7BB
:100B90002D98089520ECE7DF46F42A95E1F780E0F0
:100BA0002AE1E5DF2A95E9F7DECF28E030E0DBDF58
:100BB000869587F938272A95D1F7D5DF27F9322787
:100BC00072F3D1DFD0CFDB01742FB9DF84E2BFDF56
:100BD000E1DF8D937A95D1F70895DB01742FAFDFB4
:100BE00083EFB5DF8DE1B3DF84E6B1DF8D91AFDF59
:100BF00082E7ADDFCFDF8078D9F77A9589F708955E
:100C0000CF93DF93EC0189818130D9F1823009F4EF
:100C1000ADC0833009F467C0843009F43FC0873029
:100C200009F487C0853009F4FBC0863009F4A3C0FD
:100C3000883009F4D2C0893009F4F8C08A3009F448
:100C40001FC18B3009F42EC18C3009F43FC18D30A7
:100C500009F456C18E3009F469C18F3009F4F7C028
:100C60008F3709F414C1813109F465C1823109F467
:100C70007FC1843109F44AC1833109F465C180E040
:100C800029C0329B52C080918F010E947A0310923A
:100C90008E015F980E94E20380E01CC080918E016B
:100CA00081110EC08A819B81092E000CAA0BBB0BFF
:100CB00080938A0190938B01A0938C01B0938D0156
:100CC0008E819F81909389018093880182E0809337
:100CD00090018FEF21E931E03093A9012093A80121
:100CE000DF91CF910895E091C501F091C6018A810D
:100CF000099580939101E091C501F091C6018B8126
:100D0000099580939201E091C501F091C6018C8113
:100D1000099580939301E091C501F091C6018D8101
:100D200009958093940184E0D5CF85E00E947A03F1
:100D3000AECF80918E0181110EC08A819B81092ED8
:100D4000000CAA0BBB0B80938A0190938B01A0939C
:100D50008C01B0938D018E819F8190938901809346
:100D6000880183E0809390018FEFB4CF0E940A0442
:100D70005F9A80E0AFCF80918E0181110EC08A8191
:100D80009B81092E000CAA0BBB0B80938A019093C8
:100D90008B01A0938C01B0938D013C812D81822F1A
:100DA0008F7080938501822F807F40E1849FC001F6
:100DB0001124830F911D909387018093860120FD5C
:100DC000809384018E819F81909389018093880113
:100DD00081E0809390018FEF7DCF80918E01811112
:100DE0000EC08A819B81092E000CAA0BBB0B80933D
:100DF0008A0190938B01A0938C01B0938D01109286
:100E0000870110928601109285018E819F819093B7
:100E100089018093880184E0809390018FEF5ACFFD
:100E20000E9412048093910181E054CF81E080936D
:100E30008E018A819B81AC81BD8180938A019093D0
:100E40008B01A0938C01B0938D0180E043CF8A8108
:100E50009B81092E000CAA0BBB0B80938A019093F7
:100E60008B01A0938C01B0938D018E819F81909313
:100E700089018093880185E0809390018FEF2ACFCC
:100E80008A8180938F011092910181E023CF83E0CA
:100E9000809391011092920110929301109294010B
:100EA00084E018CF8A819B819093CB018093CA0103
:100EB0002A9A229A83E00E948B052A985F9880E103
:100EC0000E948B050E94970580E004CF80EC0E9471
:100ED000A70580E00E94A7058AE00E948B052A9A58
:100EE00085E00E948B052A9885E00E948B0584B1DD
:100EF000837D84B985B1837D85B95F9A80E0EACE30
:100F00000E94CA058093910181E0E4CE8E819F8189
:100F100090938901809388018A818093850188E07C
:100F200080939001109203018FEFD4CE8A810E94AA
:100F3000A70580E0CFCE0E94A70B8093910181117D
:100F40001DC05F9881E0C6CEBE016E5F7F4F44E05A
:100F500050E08AE891E00E948E0D8E819F819093EF
:100F600089018093880187E0809390018FEFB2CE52
:100F70005F9A8A810E94990A80E0ACCE81E0AACE75
:100F8000FF920F931F93CF93DF938C01F62E209146
:100F90009001253009F45FC0D8F58EEF820F8230C2
:100FA00008F07CC0662309F483C080918A01909187
:100FB0008B01A0918C01B0918D01E8013FEF360FBC
:100FC000030F111D1DC00E944805888380918A016E
:100FD00090918B01A0918C01B0918D010196A11D82
:100FE000B11D80938A0190938B01A0938C01B093E3
:100FF0008D01C017D10709F458C0209190012196A6
:10100000223009F7BC01CD010E9460048883DECF45
:10101000273009F043C00E94B0090E94670A8091FE
:10102000990181116BC060918A0170918B0180914F
:101030008C0190918D012F2DA8010E949E0CC82F2C
:101040000E94A709CC23E9F180E0DF91CF911F91A5
:101050000F91FF900895462FBC0180918A019091D5
:101060008B010E94E30580918A0190918B01A091F0
:101070008C01B0918D018F0D911DA11DB11D80932B
:101080008A0190938B01A0938C01B0938D018F2DD9
:10109000DF91CF911F910F91FF9008958FEFDF9116
:1010A000CF911F910F91FF90089587E08F1520F148
:1010B000109290018F2DDF91CF911F910F91FF9092
:1010C000089580918A0190918B01A0918C01B0913B
:1010D0008D018F0D911DA11DB11D80938A019093EB
:1010E0008B01A0938C01B0938D018F2DDF91CF9157
:1010F0001F910F91FF9008958F2DCACF0E94820BF0
:1011000092CFEF92FF920F931F93CF93DF93382FDD
:10111000792F162F20919001243009F467C008F42C
:101120005BC0263039F1283009F058C0E62EF12C8A
:10113000C09103018C2F90E0A701632F8C5F9E4F1D
:101140000E948E0D1C0F10930301809188019091D5
:1011500089018E199F099093890180938801892BB9
:1011600009F4D6C080E0DF91CF911F910F91FF90DD
:10117000EF900895462F682F80918A0190918B01FE
:101180000E94ED0580918A0190918B01A0918C01C4
:10119000B0918D01810F911DA11DB11D80938A0118
:1011A00090938B01A0938C01B0938D018091880165
:1011B00090918901811B9109909389018093880105
:1011C000892B81F61092900181E0DF91CF911F91E0
:1011D0000F91FF90EF900895213041F08FEFDF9154
:1011E000CF911F910F91FF90EF900895112309F473
:1011F000B9CF80918A0190918B01A0918C01B0911F
:101200008D01C32FD72F1150AE01410F511D8A01FF
:10121000F12C4FC02091860130918701232B09F0DA
:1012200052C021E04881BC01CD010E94960420916A
:10123000880130918901215031093093890120932F
:101240008801232BE9F4109290018091850181FFA0
:1012500037C08091840190E0209186013091870110
:101260008217930769F160918A0170918B018091D7
:101270008C0190918D0148810E94F204FF24F39427
:1012800080918A0190918B01A0918C01B0918D0188
:101290000196A11DB11D80938A0190938B01A093AB
:1012A0008C01B0938D01C017D10751F120919001AD
:1012B0002196213009F4AECF68810E946505B7CF31
:1012C000FF24F394DDCF20E04881BC01CD010E94D2
:1012D0009604809184018150809384018111A7CF6D
:1012E00060918A0170918B0180918C0190918D01A8
:1012F00048810E94F204809186018093840197CFF7
:101300008F2DDF91CF911F910F91FF90EF90089556
:101310000E94B0090E94670A8091850180FD10C07B
:101320006091030184E091E00E94800A8091850130
:1013300081FF03C081E0809399010E94A70942CFF9
:1013400080919901882361F30E94820BE9CF2D9A45
:101350002A9884B1846284B982E48093B0000895AD
:101360002D9A2A9884B1846284B982E08093B00077
:1013700008958091B000807408952B9A08952B9859
:1013800008952D9A2A9884B1846284B9089585B10C
:101390008B7D85B984B1846284B908952A9884B11B
:1013A0008B7D84B92D98089583B1829581700895BD
:1013B000082E82958025082E8695869580258F5F3C
:1013C0008695817008952B9860FF7AC02D9A2A988F
:1013D00094B1946294B94CE04A95F1F72B9A9CE051
:1013E0009A95F1F728E030E091E010C02D9A2A9804
:1013F00044B1446244B94CE04A95F1F72B9A4CE071
:101400004A95F1F7990F2150310959F02B98482F3F
:10141000492361F745B14B7D45B944B1446244B9B4
:10142000EACF2B9861FF45C02D9A2A9884B1846237
:1014300084B98CE08A95F1F72B9A9CE09A95F1F7A4
:101440002B9862FF1AC02D9A2A9884B1846284B9BD
:101450004CE04A95F1F72B9A8CE08A95F1F72B989E
:101460002D9A2A9884B1846284B98CE08A95F1F728
:101470002B9A9CE09A95F1F7089585B18B7D85B9FB
:1014800084B1846284B99CE09A95F1F72B9A4CE080
:101490004A95F1F72B9885B18B7D85B984B184622B
:1014A00084B98CE08A95F1F72B9A9CE09A95F1F734
:1014B000089585B18B7D85B984B1846284B9B9CF33
:1014C00095B19B7D95B994B1946294B984CF6FEF37
:1014D0008FEF0C94E30960E080E00C94E309982F0F
:1014E000092E92959025092E9695969590259F5FA9
:1014F00091FF03C066E00C94E30964E00C94E309F7
:101500000F931F93CF93DF93EC01662369F0615033
:10151000062F10E00F5F1F4F080F191F89910E94BF
:101520006F0AC017D107D1F7DF91CF911F910F91AB
:101530000895CF93C82F2D9A2A9884B1846284B9D4
:1015400082E08093B0006FEF8FEF0E94E30981EC9F
:101550000E946F0A80E00E946F0A84B1837C84B984
:1015600085B1837C85B9C13069F0C23049F4239AD2
:101570002B9887EB9BE00197F1F700C000002B9AB6
:10158000CF910895239A2B98CF91089511C02B984D
:101590002A9894B19B7D94B92D982CE02A95F1F767
:1015A0002B9A93B14CE04A95F1F794FF05C0815016
:1015B0008111EDCF81E0089588E090E030E021E0F6
:1015C0002B98ECE0EA95F1F72B9A1C99322BFCE072
:1015D000FA95F1F7220F019799F7FB0130832B98C9
:1015E000FCE0FA95F1F72B9A83B12CE02A95F1F7FC
:1015F000032E32953025032E36953695302582956B
:1016000081703F5F36953170831791F02B989CE085
:101610009A95F1F72B9A82E0ECE0EA95F1F72B9896
:10162000FCE0FA95F1F72B9A4CE04A95F1F7089512
:101630002B988CE08A95F1F72B9A1C9902C083E0D5
:10164000EBCF2CE02A95F1F72B984CE04A95F1F777
:101650002B9A1C9905C083E04CE04A95F1F7089558
:1016600080E04CE04A95F1F70895CF92DF92EF9237
:10167000FF920F931F93CF93DF9300D000D01F9260
:10168000CDB7DEB76A012CE029836A837B838C8324
:101690009D838E010E5F1F4F7E0186E0E80EF11CD8
:1016A0008CE00E946F0A0E151F0541F0F801819130
:1016B0008F010E946F0A0E151F05C1F7B60188EC55
:1016C0000E94C60A182F60E080E00E94E3096FEFD5
:1016D0008FEF0E94E30960E080E00E94E3096FEF72
:1016E0008FEF0E94E309812F0F900F900F900F90C2
:1016F0000F90DF91CF911F910F91FF90EF90DF90AE
:10170000CF9008951F93CF93DF931F92CDB7DEB78D
:1017100014E602C01150A9F0AE014F5F5F4F6FECAD
:1017200071E080E091E00E94350B8111F3CF998147
:1017300097FDF0CF109299010F90DF91CF911F91FB
:10174000089584E00F90DF91CF911F910895EF925B
:10175000FF920F931F93CF93DF93CDB7DEB72997F7
:101760000FB6F894DEBF0FBECDBF82E08093B0000D
:1017700081E08093B10080E28093B3002B9A85B121
:101780008B7C85B984B18C6084B984B18F7C84B939
:101790002B9885B18B7D85B984B1846284B989E445
:1017A00091E00197F1F700C000002D9A2A9884B1CA
:1017B000846284B92B9A94E09A95F1F76FEF8FEFDA
:1017C0000E94E3096FEF8FEF0E94E30981EC0E9412
:1017D0006F0A89E50E946F0A80EE898348E050E035
:1017E00066E071E0CE0102960E94850D8E010F5FCA
:1017F0001F4FFE013A967F01F80181918F010E94EF
:101800006F0A0E151F05C1F76FEF8FEF0E94E309F6
:1018100082EC0E946F0A83E00E946F0A6FEF8FEFE5
:101820000E94E3090E94820B811108C02D9A2A9818
:1018300094B1946294B992E49093B00029960FB653
:10184000F894DEBF0FBECDBFDF91CF911F910F91F6
:10185000FF90EF900895EF92FF920F931F93CF9315
:10186000DF9300D000D000D0CDB7DEB72CE42983C1
:101870006A837B838C839D834E838E010E5F1F4F13
:101880007E0187E0E80EF11C8CE403C0F801819131
:101890008F010E946F0A0E151F05C1F780E0269682
:1018A0000FB6F894DEBF0FBECDBFDF91CF911F9171
:1018B0000F91FF90EF900895CF9381110AC0C0E07F
:1018C00081EC0E946F0A8C2F0E946F0A80E0CF91FA
:1018D0000895C9E5F5CFEF92FF920F931F93CF9331
:1018E000DF9300D000D01F92CDB7DEB72BE629835F
:1018F0006A837B838C839D838E010E5F1F4F7E01E5
:1019000086E0E80EF11C8BE60E946F0A0E151F059B
:1019100041F0F80181918F010E946F0A0E151F0599
:10192000C1F780E00F900F900F900F900F90DF9114
:10193000CF911F910F91FF90EF9008952F923F92BA
:101940004F925F926F927F928F929F92AF92BF92CF
:10195000CF92DF92EF92FF920F931F93CF93DF937B
:10196000CDB7DEB728970FB6F894DEBF0FBECDBF58
:101970002B013C011A012F8384E1E82EF12CCE01CA
:1019800007966C01DE0116965D01B22FB150B88743
:10199000ECE4E9838AEC91E0A0E0B1E08A839B83E8
:1019A000AC83BD8393E49E838E010E5F1F4F8CE456
:1019B00003C0D8018D918D010E946F0AC016D10617
:1019C000C1F7BBE6B9834A825B826C827D828E015D
:1019D0000E5F1F4F8BE60E946F0AA016B10641F002
:1019E000F80181918F010E946F0AA016B106C1F71C
:1019F000FF81F23008F44DC080EA0E946F0A8885AA
:101A00000E946F0A84E20E946F0A9885892E912CA9
:101A1000AFEF8A1A9A0A820C931C810106C00F5FED
:101A20001F4F0815190509F44DC0B80188EC0E9434
:101A3000C60AF82E882399F360E080E00E94E3094B
:101A40006FEF8FEF0E94E30960E080E00E94E309FE
:101A50006FEF8FEF0E94E309EA94E11099CF8F2D89
:101A600028960FB6F894DEBF0FBECDBFDF91CF91A1
:101A70001F910F91FF90EF90DF90CF90BF90AF90AC
:101A80009F908F907F906F905F904F903F902F909E
:101A9000089584E20E946F0A8F818111B6CF60E0C1
:101AA00080E00E94E3096FEF8FEF0E94E30960E09E
:101AB00080E00E94E3096FEF8FEF0E94E309F110CD
:101AC000CBCFCDCF60E080E00E94E3096FEF8FEFD6
:101AD0000E94E30960E080E00E94E3096FEF8FEF6E
:101AE0000E94E309BCCF1BB815B88BEF8AB98FEF02
:101AF00084B914B883E087B99EEF98B985BD0E9478
:101B0000D80178940E94A600FDCFFB01DC0102C041
:101B100005900D9241505040D8F708956817790705
:101B200068F4FB01DC01E40FF51FA40FB51F02C030
:101B300002900E9241505040D8F708950C94A00D99
:101B4000FB01DC0102C001900D9241505040D8F7DA
:061B50000895F894FFCF98
:021B5600FF5A34
:00000001FF
